:100000000C94AC000C94DB0F0C94C9000C94E30E20
:100010000C94C9000C943C0F0C94C9000C94C900BA
:100020000C94C9000C9480110C94C9000C94C90064
:100030000C94C9000C94C9000C94C9000C94C9001C
:100040000C94470E0C94C9000C94C9000C94C90080
:100050000C94C9000C94CE020C94C9000C94D70DDA
:100060000C94C9000C94C900FA3E1A7ADE8EF62E62
:100070006078AE1CAA2A3ACEF30AB61E3838B86E9B
:1000800076DA6800FC60DAF266B6BEE0FEF684005E
:1000900003070809060A050C0490000B10120F0D47
:1000A0000E11139B00616C61726D206F66660053C8
:1000B00065742064617900646F6E6500616C6172C3
:1000C0006D20696E697400636C6F636B20696E6983
:1000D0007400626F6F737420696E69740065657077
:1000E000726F6D20696E697400737065616B657203
:1000F00020696E69740076666420696E69740074A4
:1001000075726E696E67206F6E20616C61726D73BF
:1001100077007475726E696E67206F6E20627574F9
:10012000746F6E7300636C6F636B20696E6974002B
:10013000210057414B455245534554007A00616CAC
:1001400061726D206F6E2100623200623300623195
:1001500000736E6F6F7A650011241FBECFEFD4E07D
:10016000DEBFCDBF12E0A0E0B1E0ECEAF9E202C0F0
:1001700005900D92A034B107D9F712E0A0E4B2E0E7
:1001800001C01D92A237B107E1F70E941B100C9429
:10019000D5140C9400009C01789410924F02109298
:1001A0004E0280914E0290914F0282179307C8F33E
:1001B0000895A895089581E0809343025B9A8CB5D9
:1001C0008F7B8CBD85B1877D85B95E9815BC1092FB
:1001D0005C0210926800459885B1897F85B98BB122
:1001E0008F7C8BB928988AB18F7C8AB920985A98CD
:1001F0005298E1E6F0E090E8908388E08083449AAA
:1002000083B7876083BF8895908310824498089550
:100210008EE284B988E48AB989E087B984E38BB92E
:1002200091E095B985E08093680090936B0080E33E
:1002300080936D000895A4E0B0E00E94C114802D69
:1002400068E10E94511490935902A5E0B0E00E9429
:10025000C114802D6CE30E94511490936702A6E0B4
:10026000B0E00E94C114802D0E945114909371023D
:10027000A8E0B0E00E94C114802D0E945114909318
:100280005B02A7E0B0E00E94C114802D68E10E94EB
:10029000511490936902A1E0B0E00E94C114802D36
:1002A00064E60E94511490935A02A2E0B0E00E94CA
:1002B000C114802D6DE00E94511490937002A3E050
:1002C000B0E00E94C114802D8F7180935D0291E097
:1002D00090934502E6EBF0E080818062808385E0C8
:1002E0008093B10090937000789408959C0183707E
:1002F0009070892B51F4C90164E670E00E945D148E
:10030000892B19F081E090E00CC0E0E0F0E0C90139
:1003100060E971E00E945D14892B11F4E1E0F0E0E6
:10032000CF0190E00895AAE0B0E00E94C114802DB2
:1003300080935C0285B1866085B982E380938000FA
:1003400080915C02882329F08091800080688093EE
:10035000800088E1809381008AEF90E0909387008D
:10036000809386008091860090918700969587956E
:1003700090938900809388008091880090918900F3
:1003800090938B0080938A000895109280001092C1
:100390008100299A2A98789410924F0210924E0266
:1003A00080914E0290914F020A97D0F32A9A299891
:1003B000789410924F0210924E0280914E029091CA
:1003C0004F020A97D0F385B1897F85B982EB80937C
:1003D000800088E18093810008951F93162F9C016F
:1003E00040E050E060E472E48FE090E00E94A614E8
:1003F000309387002093860080918600909187003B
:100400009695879590938B0080938A0080918A00BF
:1004100090918B0090938900809388001FC08091F9
:10042000810082608093810020ED37E088EC90E0CD
:100430000197F1F721503040C9F7809181008D7FFD
:100440008093810085B1897F85B920ED37E088EC04
:1004500090E00197F1F721503040C9F71150F8F6BC
:1004600085B1897F85B91F91089520E030E0D901D9
:100470000E94C114802D813009F44EC091E0D90151
:10048000092E0E94C91480E0A1E0B0E0082E0E946D
:10049000C914A2E0B0E0092E0E94C914A3E0B0E0A4
:1004A000092E0E94C914A4E0B0E0082E0E94C914CD
:1004B000A5E0B0E0082E0E94C914A6E0B0E0082E26
:1004C0000E94C9142AE0A7E0B0E0022E0E94C914DD
:1004D000A8E0B0E0082E0E94C9149EE1A9E0B0E0B7
:1004E000092E0E94C914AAE0B0E0082E0E94C91487
:1004F000ABE0B0E0082E0E94C914ACE0B0E0022EE0
:100500000E94C914AEE0B0E0082E0E94C91462E057
:1005100088EB9BE00E94ED0108953D9A459AAAE779
:10052000B0E08C9186608C93ECE7F0E08081806491
:100530008083808184608083EEE7F0E08081806149
:1005400080838C9180688C938C9188608C930895C3
:1005500080916A02882329F480917A0080648093D4
:100560007A000895982F8B3510F09AE503C08E31EC
:1005700008F49EE187B5891397BD08950E94B202E1
:1005800083E084BD81E085BD84B5806884BDEEE6EE
:10059000F0E0808181608083789408951F920F92AB
:1005A0000FB60F9211242F933F934F935F936F9346
:1005B0007F938F939F93AF93BF93EF93FF9380911C
:1005C0006A02882391F5209178008091790090E06B
:1005D000782F662730E0622B732B70936D02609347
:1005E0006C0283E0623F780718F08EE190E01BC058
:1005F00081E0653F780718F48AE590E014C0645FF5
:10060000714080E090E02CE330E040E050E00E9458
:1006100032142EEF31E040E050E00E9484148AE56D
:1006200090E0821B930B0E94B202FF91EF91BF9169
:10063000AF919F918F917F916F915F914F913F917A
:100640002F910F900FBE0F901F9018959C0100974F
:10065000A9F4E8E6F0E084918160809365027496E5
:10066000E491E160E093660280916A02882301F5DB
:1006700080917A00806480937A0008956AE070E047
:100680000E947114FB01EC57FF4FE491E160E0938D
:100690006502C9016AE070E00E947114FC01EC5728
:1006A000FF4FE491E160E0936602822F0E94B20264
:1006B0000895CF93DF9380917002C82FD0E080918E
:1006C0005A02E82FF0E0E053F84F80917002833037
:1006D00010F42C96319720915D0230E02F5F3F4F50
:1006E0002E0F3F1FCE01880F991F280F391FCF01F2
:1006F0009695879596958795280F391FCF0160E9C4
:1007000071E00E945D14260F371FCF0164E670E090
:100710000E945D14261B370BAE014F5F5F4FCA016D
:10072000880F991F840F951F880F991F6AE070E04A
:100730000E945D14C901860F971F67E070E00E9458
:100740005D1490E0DF91CF910895EF92FF920F93A7
:100750001F93982FF42E1E2D80914602882369F551
:1007600080915D02891708F442C080915D0268178C
:10077000F0F1809170028217D1F5809159028017B3
:10078000B1F587E0481761F4EE2081F0113079F57A
:10079000109346028091590281508093590227C0DC
:1007A0000E945903F81619F5EE2021F480915902A0
:1007B0008F5FF3CF1130D9F4EBCF80915D028917B1
:1007C00040F080915D02681720F0809170028217DE
:1007D00019F0113061F409C0113049F40E94590335
:1007E000F81629F087E0F81611F0109246021F91D2
:1007F0000F91FF90EF9008951F93182F262F842FAD
:100800006AE00E945114E92FF0E0EC57FF4FE491A9
:10081000E0936602842F0E945114E82FF0E0EC5719
:10082000FF4FE491E093650210926402822F0E94D0
:100830005114E92FF0E0EC57FF4FE491E09363028D
:10084000822F0E945114E82FF0E0EC57FF4FE49103
:10085000E09362021092610280914202882351F576
:10086000812F90E00B966CE070E00E9471149C0167
:1008700001966AE070E00E947114FC01EC57FF4F92
:10088000E491E0936002265F3F4F2331310518F475
:1008900010925F0205C0E5E8F0E0E491E0935F02AA
:1008A00080915E021C3010F0816001C08E7F8093C9
:1008B0005E021AC0812F68E10E945114292F892FEE
:1008C0006AE00E945114E92FF0E0EC57FF4FE491E9
:1008D000E0936002822F0E945114E82FF0E0EC5761
:1008E000FF4FE491E0935F021F910895CF92DF9252
:1008F000EF92FF920F931F93F0905902D0906702EE
:10090000E09071028AE080935402CC2480915102DD
:1009100080FDFCC080915102882321F48091520215
:10092000882321F08AE08093540205C0809154020C
:10093000882309F466C08091510281FF65C010923E
:100940005102CC20C1F4F0905902D0906702E0909F
:1009500071024E2D6D2D8F2D0E94FC0380915F0240
:10096000816080935F028091600281608093600269
:10097000CC24C39449C081E0C81691F44E2D6D2D4E
:100980008F2D0E94FC03809162028160809362023D
:100990008091630281608093630212E0C12E34C0B3
:1009A00092E0C91691F44E2D6D2D8F2D0E94FC03FF
:1009B000809165028160809365028091660281600A
:1009C00080936602B3E0CB2E1FC0F0925902D09202
:1009D0006702E092710280916F02813039F480E009
:1009E00092E09F1508F081E08093460280916F02AB
:1009F000823039F480E092E09F1508F081E0809326
:100A0000460210926E0282C08091510282FD04C0A3
:100A10008091520282FF7ACF1092510281E0C81673
:100A200009F58F2D90E0019668E170E00E94711445
:100A30008C01F82E4E2D6D2D0E94FC0380915F02DB
:100A4000816080935F028091600281608093600288
:100A50000093590280915902A4E0B0E0082E0E9450
:100A6000C91442C092E0C91611F58D2D90E001968F
:100A70006CE370E00E9471148C01D82E4E2D682F0B
:100A80008F2D0E94FC03809162028160809362023C
:100A90008091630281608093630280916702A5E088
:100AA000B0E0082E0E94C914009367021DC083E0C5
:100AB000C816D1F48E2D90E001966CE370E00E9490
:100AC00071148C01E82E482F6D2D8F2D0E94FC0390
:100AD00080916502816080936502809166028160E9
:100AE00080936602009371028091520282FF0ECFC2
:100AF000789410924F0210924E0280914E02909183
:100B00004F028B34910508F001CFF7CF1F910F9161
:100B1000FF90EF90DF90CF900895382F262F1092FE
:100B200066021092650210926402862F6AE00E94AB
:100B30005114E92FF0E0EC57FF4FE491E09363028A
:100B4000822F0E945114E82FF0E0EC57FF4FE49100
:100B5000E09362021092610280914202882309F0C0
:100B600038C090915E02E8E6F0E03C3040F09160E1
:100B700090935E023F9684918093650206C08491B3
:100B8000809365029E7F90935E02E4E7F0E0E4913B
:100B9000E0936602832F90E00B966CE070E00E9479
:100BA00071149C0101966AE070E00E947114FC01CE
:100BB000EC57FF4FE491E0936002265F3F4F2331F3
:100BC000310518F410925F020895E5E8F0E0E49131
:100BD0001EC0832F90E0479668E170E00E94711478
:100BE0009C012F5F3F4FC9016AE070E00E947114C1
:100BF000FC01EC57FF4FE491E0936002C9016AE009
:100C000070E00E947114FB01EC57FF4FE491E093F8
:100C10005F020895FF920F931F9310916902009154
:100C20005B028AE080935402FF248091510280FD90
:100C3000B5C080915102882321F48091520288230B
:100C400021F08AE08093540219C0809154028823D5
:100C5000A9F410926E021093690200935B028091D6
:100C60006902A7E0B0E0082E0E94C91480915B02DF
:100C7000A8E0B0E0082E0E94C91490C080915102F3
:100C800081FF3EC010925102FF2089F4602F812F16
:100C90000E948D0580915F02816080935F02809148
:100CA0006002816080936002FF24F39429C081E098
:100CB000F81689F4602F812F0E948D0580916202C1
:100CC00081608093620280916302816080936302FD
:100CD00082E0F82E15C01093690200935B028091A8
:100CE0006902A7E0B0E0082E0E94C91480915B025F
:100CF000A8E0B0E0082E0E94C91410926E024EC007
:100D00008091510282FD04C08091520282FF8DCFFA
:100D10001092510281E0F816B1F4812F90E0019613
:100D200068E170E00E947114182F602F0E948D05F9
:100D300080915F02816080935F0280916002816098
:100D40008093600219C082E0F816B1F4802F90E021
:100D500001966CE370E00E947114082F682F812FB8
:100D60000E948D0580916202816080936202809171
:100D700063028160809363028091520282FF55CFAB
:100D8000789410924F0210924E0280914E029091F0
:100D90004F028B34910508F048CFF7CF1F910F9188
:100DA000FF900895CF93DF9310925E02DC01CFE5B0
:100DB000D2E0EC91EE23D1F08E2F81568A3128F4C7
:100DC000F0E0E95FFF4FE49108C08E2F80538A3036
:100DD00030F4F0E0EC5AFF4FE491E88301C0188250
:100DE0001196219682E0C736D80719F7DF91CF9187
:100DF0000895882309F07CC010925E0282E08093FF
:100E000061028093640280914202882361F580919F
:100E100070026AE00E945114E82FF0E0EC57FF4F97
:100E2000E491E0935F02809170020E945114E92FD7
:100E3000F0E0EC57FF4FE491E093600280915D0297
:100E40000E945114E82FF0E0EC57FF4FE491E0933B
:100E5000620280915D020E945114E92FF0E0EC578C
:100E6000FF4FE4912BC080915D026AE00E94511413
:100E7000E82FF0E0EC57FF4FE491E0935F028091A0
:100E80005D020E945114E92FF0E0EC57FF4FE4910E
:100E9000E0936002809170020E945114E82FF0E00C
:100EA000EC57FF4FE491E0936202809170020E9440
:100EB0005114E92FF0E0EC57FF4FE491E093630207
:100EC00080915A026AE00E945114E82FF0E0EC573A
:100ED000FF4FE491E093650280915A020E94511401
:100EE000E92FF0E0EC57FF4FE491E093660208959C
:100EF000813009F09EC010926502109266020E9435
:100F000059038330B9F0843028F4813069F082309D
:100F100070F407C08530A1F0853078F08630B9F4E0
:100F200012C080E091E011C087E091E00EC08EE039
:100F300091E00BC086E191E008C08FE191E005C02F
:100F400088E291E002C08FE291E00E94D20678949C
:100F500010924F0210924E0280914E0290914F02D9
:100F6000885E9340C8F3109262021092630210925E
:100F7000640280917002863079F1873070F483309A
:100F800011F1843028F48130C1F08230D9F518C0D5
:100F90008430E1F08530B1F51CC0893031F18A3000
:100FA00028F48730E1F0883069F51CC08B3019F1E6
:100FB0008B30F0F08C3031F521C088E391E020C017
:100FC0008CE391E01DC080E491E01AC086E491E0DA
:100FD00017C08CE491E014C080E591E011C085E574
:100FE00091E00EC08AE591E00BC080E691E008C078
:100FF00085E691E005C08BE691E002C081E791E0D3
:101000000E94D20680915D026AE00E945114E82F8E
:10101000F0E0EC57FF4FE491E093650280915D02B0
:101020000E945114E92FF0E0EC57FF4FE491E09358
:1010300066020895EF92FF921F93CF93DF938AE0A9
:1010400080935402ABE0B0E00E94C114802D8093E5
:10105000420210E090E8E92E91E0F92EC7E7D1E0D6
:1010600080915102882321F480915202882321F03B
:101070008AE08093540204C0809154028823B9F01E
:101080008091510280FD35C08091510281FF12C0D4
:1010900010925102112359F480914202882311F4D5
:1010A000CE0101C0C7010E94D20611E003C0109218
:1010B0006E021FC08091510282FFD2CF1092510266
:1010C000113071F690E080914202882309F491E09A
:1010D00090934202992311F4CE0101C0C7010E94EE
:1010E000D20680914202ABE0B0E0082E0E94C91403
:1010F000B7CFDF91CF911F91FF90EF900895CF92DE
:10110000DF92FF920F931F93CF93DF938AE0809338
:101110005402AAE0B0E00E94C114002DFF2422E98D
:10112000C22E21E0D22EC9E8D1E08091510288235D
:1011300021F480915202882321F08AE080935402A6
:1011400004C080915402882361F18091510280FD96
:1011500064C08091510281FF27C010925102FF208C
:1011600001F5002349F0CE010E94D206809163026E
:1011700081608093630203C0C6010E94D206809101
:101180006402816080936402809165028160809333
:10119000650280916602816080936602FF24F39469
:1011A00003C010926E0239C08091510282FFBDCF00
:1011B0001092510281E0F81609F0B7CF10E0002339
:1011C00009F411E0012F112349F0CE010E94D2064B
:1011D0008091630281608093630203C0C6010E9414
:1011E000D2068091640281608093640280916502DE
:1011F00081608093650280916602816080936602BF
:10120000AAE0B0E0012E0E94C9140E94930161E09F
:1012100080EA9FE00E94ED0188CFDF91CF911F917E
:101220000F91FF90DF90CF900895CF92DF92EF92D1
:10123000FF921F93CF93DF938AE08093540210E0D4
:101240004BE9C42E41E0D42E3DEAE32E31E0F32EEB
:10125000C4EAD1E080915102882321F480915202A6
:10126000882321F08AE08093540204C080915402C4
:101270008823E1F08091510280FD41C080915102AC
:1012800081FF17C010925102112381F480916F02E7
:10129000813019F0823041F402C0C60101C0CE0194
:1012A0000E94D20611E005C0C701FACF10926E026B
:1012B00026C08091510282FFCDCF10925102113091
:1012C00049F61092460280916F02813031F08230EF
:1012D00049F010936F02C60108C082E080936F024C
:1012E000CE0103C010926F02C7010E94D206809106
:1012F0006F02AEE0B0E0082E0E94C914ABCFDF91C0
:10130000CF911F91FF90EF90DF90CF9008951F93A2
:10131000CF93DF938AE08093540210E0C6EBD1E0D4
:1013200080915102882321F480915202882321F078
:101330008AE08093540204C0809154028823B1F063
:101340008091510280FD41C08091510281FF18C0FF
:1013500010925102112351F4CE010E94D2068091C5
:101360006A0290E00E94260311E00AC010926E0209
:1013700080916A02A9E0B0E0082E0E94C91425C03D
:101380008091510282FD04C08091520282FFC8CF39
:1013900010925102113021F680916A02882321F4C3
:1013A0008EE180936A020BC080916A028B5F80930A
:1013B0006A0280916A028B3510F010926A02809165
:1013C0006A0290E00E942603ABCFDF91CF911F917C
:1013D00008952F923F924F925F926F927F928F92D9
:1013E0009F92AF92BF92CF92DF92EF92FF920F93B4
:1013F0001F93CF93DF93CDB7DEB721970FB6F89445
:10140000DEBF0FBECDBFC0907102882321F44D997D
:1014100072C14C9970C161E080ED97E00E94ED01CE
:1014200061E088EB9BE00E94ED0161E080EA9FE0D3
:101430000E94ED014D9BFECF4C9BFECFAEE5B2E08E
:101440001D9282E0A736B807D9F78CE080936E0230
:10145000198200E0DD2415E0FF24EE24EA94FAEC82
:101460004F2EF1E05F2EE3ED2E2EE1E03E2E77ECE5
:10147000872E71E0972E6DEB662E61E0762E5EEC86
:10148000A52E51E0B52EA895FF2009F43CC020916F
:101490006C0230916D02C9016AE070E00E945D1437
:1014A000FC01EC57FF4FE491E0936602C9016AE04A
:1014B00070E00E945D149B01CB016AE070E00E9425
:1014C0005D14FC01EC57FF4FE491E0936502C90104
:1014D0006AE070E00E945D149B01CB016AE070E05D
:1014E0000E945D14FC01EC57FF4FE491E09364020D
:1014F000C9016AE070E00E945D14FB01EC57FF4FE8
:10150000E491E09363028091510280FF35C061E075
:1015100080ED97E00E94ED01809151028E7F8093D3
:101520005102FF2049F5002399F480915E0288233F
:1015300011F481E003C0813021F482E080935E02E7
:101540001BC010925E0281E080935F0201E014C034
:10155000E02FF0E0E25AFD4F8081880F80838823DE
:1015600059F40F5F093011F400E006C0E02FF0E0FD
:10157000E25AFD4F81E080838091510281FF1BC0C0
:1015800061E084EC99E00E94ED01809151028D7F31
:1015900080935102FF2079F4E0906A0210926A026F
:1015A00080916A02882329F480917A008064809374
:1015B0007A00FF24F3948091510282FF1CC061E005
:1015C00088EB9BE00E94ED01809151028B7F80931C
:1015D0005102FF2081F09FEFE91629F0E0926A02A4
:1015E0008E2D0E94B202EEE5F2E0119282E0E73623
:1015F000F807D9F7FF2480917102C81609F46AC070
:10160000C09271020E94C5014D9955C04C9949C0C4
:101610001150123091F0133018F41130A1F40FC0B2
:10162000133049F0143079F4E02FF0E0E25AFD4F26
:10163000D080C30105C0C40103C0C20101C0C501FF
:101640000E94D20647C0C1010E94D206112309F0B0
:1016500041C04D9BFECF4C9BFECF61E080EA9FE0F6
:101660000E94ED0161E088EB9BE00E94ED0161E0EA
:1016700080ED97E00E94ED019FEFE916E1F1EE2089
:1016800031F0E0926A028E2D0E94B20234C0809145
:101690006A02882381F580917A00806480937A00C1
:1016A0002AC01530B0F4EEE5F2E0119282E0E736A0
:1016B000F807D9F709C0153060F4EEE5F2E01192B1
:1016C00092E0E736F907D9F7E02FF0E0E25AFD4F54
:1016D000D08215E080916802E981E81709F4D3CE41
:1016E000F0916802F983609168026F5F80EA9FE081
:1016F0000E94ED01C8CE21960FB6F894DEBF0FBE52
:10170000CDBFDF91CF911F910F91FF90EF90DF90B0
:10171000CF90BF90AF909F908F907F906F905F9091
:101720004F903F902F9008958AE0809354028091CB
:101730005102882321F480915202882321F08AE00B
:101740008093540204C080915402882369F08091F0
:10175000510280FD13C08091510281FF08C0109298
:10176000510281E00E94E90910926E020895809171
:10177000510282FFDCCF10925102D9CF089581E54A
:101780008CBD08959B01AC01F894AA27BB278EBDA0
:101790000DB407FEFDCFBB27A52F942F832F8EBD41
:1017A0000DB407FEFDCF2EBD0DB407FEFDCF409A50
:1017B000409878940895EF92FF920F931F93E82F2B
:1017C000F0E0E057FF4FE49181E090E002C0880F25
:1017D000991FEA95E2F77C010027F7FC0095102F8E
:1017E0002091550230915602409157025091580273
:1017F000A0E0B0E070E0CB010A2E02C0959587957D
:101800000A94E2F780FF13C0FD01E556FF4FE49113
:1018100021E030E040E050E004C0220F331F441FBD
:10182000551FEA95D2F7E22AF32A042B152B1196BD
:10183000A830B10501F7209355023093560240932A
:10184000570250935802C801B7010E94C20B1F9162
:101850000F91FF90EF9008958EBD0DB407FEFDCF60
:1018600008954A9B39C080916802882309F051C0CD
:1018700081E08093680210924D0210924C02809198
:101880006E02882309F045C08BED91E00E94D206DC
:1018900089E080936E02789410924F0210924E026B
:1018A00080914E0290914F02885E9340C8F3609100
:1018B0005B02809169020E948D05789410924F021C
:1018C00010924E0280914E0290914F02885E93409A
:1018D000C8F310926E020895809168028823C9F0BF
:1018E0001092680210924D0210924C0280916B028D
:1018F000882379F061E085EA90E00E940F1410924D
:101900006B02809181008D7F8093810085B186601C
:1019100085B908951F93CF93DF938AE08093540293
:1019200010E0CFEAD0E080915102882321F4809129
:101930005202882321F08AE08093540205C08091EE
:101940005402882309F471C08091510280FD0AC1BC
:101950008091510281FF6CC0109251021123C9F491
:1019600080914202882311F411E005C061E0CE01AC
:101970000E940F1412E080E00E94F90680915F023D
:10198000816080935F028091600281608093600239
:101990004FC0113029F480914202882339F01EC0D3
:1019A0001230E1F4809142028130A9F48091420228
:1019B000882311F412E001C011E080E00E94F906D2
:1019C00080916202816080936202809163028160F3
:1019D000809363022DC0882339F015C0113099F42B
:1019E00080914202813079F480E00E94F906809172
:1019F00065028160809365028091660281608093B8
:101A0000660213E015C083E680936E0280E00E94B8
:101A1000F906789410924F0210924E0280914E0275
:101A200090914F028C5D9540C8F310926E029AC05F
:101A30008091510282FD04C08091520282FF73CFD7
:101A400010925102113061F5809170028F5F809386
:101A50007002809170028D3010F01093700280E05F
:101A60000E94F90680914202882359F480915F0216
:101A7000816080935F028091600281608093600248
:101A80000AC0809162028160809362028091630249
:101A900081608093630280917002A2E0B0E04EC04A
:101AA000123069F580915D028F5F80935D028091B5
:101AB0005D02803218F081E080935D0280E00E9438
:101AC000F90680914202813059F480915F02816071
:101AD00080935F02809160028160809360020AC0FF
:101AE00080916202816080936202809163028160D2
:101AF0008093630280915D02A3E0B0E01FC01330C9
:101B000001F580915A028F5F80935A0280915A02A8
:101B100064E60E94511490935A0280E00E94F906F4
:101B20008091650281608093650280916602816088
:101B30008093660280915A02A1E0B0E0082E0E94D4
:101B4000C9148091520282FFEECE789410924F0217
:101B500010924E0280914E0290914F02CC9708F065
:101B6000E2CEF8CFDF91CF911F91089588E592E002
:101B700090934D0280934C0261E081E591E00E94D8
:101B80000F1484EE91E00E94D20689E080936E02E9
:101B9000789410924F0210924E0280914E029091D2
:101BA0004F02885E9340C8F310926E0208951F9210
:101BB0000F920FB60F9211242F933F934F935F9381
:101BC0006F937F938F939F93AF93BF93EF93FF9305
:101BD00000B605FE2BC080914302882309F046C061
:101BE0005B9A85B1877D85B95E988CB58F7B8CBDFE
:101BF00080914502882371F080916702A5E0B0E0F2
:101C0000082E0E94C91480917102A6E0B0E0082E4F
:101C10000E94C91461E08CE391E00E940F1415BC8E
:101C200010925C021092680045981BC0809143029C
:101C30008823E1F080914502882371F0809167024A
:101C4000A5E0B0E0082E0E94C91480917102A6E0C0
:101C5000B0E0082E0E94C91461E082E391E00E9486
:101C60000F14E0914002F09141020995FF91EF912C
:101C7000BF91AF919F918F917F916F915F914F91A4
:101C80003F912F910F900FBE0F901F9018951F92AC
:101C90000F920FB60F9211242F933F934F935F93A0
:101CA0006F937F938F939F93AF93BF93EF93FF9324
:101CB0007894A8958091480290914902019690935A
:101CC000490280934802819708F46CC0109249023F
:101CD0001092480280914E0290914F02019690938B
:101CE0004F0280934E0280914702893010F010928B
:101CF000470280914702E82FF0E0E25AFD4F6081F1
:101D00000E94DB0B809147028F5F80934702809196
:101D10006B02882309F446C080914C0290914D02D9
:101D2000892B09F03FC080914A0290914B020196A5
:101D300090934B0280934A028536910598F1109258
:101D40004B0210924A028AEF90E0909387008093B2
:101D50008600809186009091870096958795909354
:101D60008B0080938A0080918A0090918B009093E1
:101D700089008093880080916B02807F49F0809178
:101D80006B028F7080936B02809181008D7F08C001
:101D900080916B02806F80936B02809181008260E2
:101DA00080938100FF91EF91BF91AF919F918F91AF
:101DB0007F916F915F914F913F912F910F900FBE47
:101DC0000F901F9018951F920F920FB60F9211242B
:101DD0002F933F934F935F936F937F938F939F9333
:101DE000AF93BF93EF93FF9310926B007894189981
:101DF0002AC08091500281FD2BC0789410924F022E
:101E000010924E0280914E0290914F020A97D0F3A9
:101E100018991EC00E94C50180916B02882319F099
:101E20000E94B60D15C080915002826080935002CE
:101E30008091510282608093510261E088E491E0D8
:101E40000E940F1405C0809150028D7F8093500234
:101E500081E080936B00FF91EF91BF91AF919F91D3
:101E60008F917F916F915F914F913F912F910F9043
:101E70000FBE0F901F9018951F920F920FB60F92E2
:101E800011242F933F934F935F936F937F938F937F
:101E90009F93AF93BF93EF93FF9310926D0078944D
:101EA000A8954D9927C08091500280FD28C0789454
:101EB00010924F0210924E0280914E0290914F026A
:101EC0000A97D0F34D9963C00E94C50180916B02BF
:101ED0008823C9F5809150028160809350028091DF
:101EE000510281608093510261E08EE491E00E9492
:101EF0000F1405C0809150028E7F809350024C9940
:101F00003FC08091500282FD42C0789410924F02EF
:101F100010924E0280914E0290914F020A97D0F398
:101F20004C9935C082E0809353021BC04C9B19C072
:101F30000E94C501809150028B7F80935002809156
:101F40006B02882319F00E94B60D21C061E08BE47A
:101F500091E00E940F14809151028460809351029D
:101F600016C080915302882309F780915002846043
:101F7000809350028091520284608093520207C085
:101F800010925202809150028B7F8093500280E326
:101F900080936D00FF91EF91BF91AF919F918F91D1
:101FA0007F916F915F914F913F912F910F900FBE55
:101FB0000F901F9018951F920F920FB60F92112439
:101FC0002F933F934F935F936F937F938F939F9341
:101FD000AF93BF93EF93FF931DBA89E60E94FF1260
:101FE00029B17894789410924F0210924E02809109
:101FF0004E0290914F020A97D0F389B1247030E0DD
:1020000090E0847090702817390711F40E94310C09
:1020100081E08DBBFF91EF91BF91AF919F918F9127
:102020007F916F915F914F913F912F910F900FBED4
:102030000F901F9018954F925F926F927F928F92A0
:102040009F92AF92BF92CF92DF92EF92FF920F9347
:102050001F93CF93DF934D9B02C000E005C009B1F1
:1020600002950F700095017015BC569A5E9884B762
:1020700014BE88E10FB6F89480936000109260005F
:102080000FBE88E190E02FE00FB6F894A8958093FA
:1020900060000FBE20936000A89511E010934402E9
:1020A000109245028AE190E00E94F21261E080E322
:1020B00091E00E940F1488E480BF00B605FE0BC0BB
:1020C00080B7806180BF61E085E291E00E940F14DB
:1020D0000E941B0165C00E9408015B9861E082E1DB
:1020E00091E00E940F1461E08FEF90E00E940F14C6
:1020F000109369001DBB10926E0261E086EF90E0C4
:102100000E940F1481E58CBD61E089EE90E00E9491
:102110000F140E94930161E08DED90E00E940F1476
:102120000E9435020E948D0261E082ED90E00E94E3
:102130000F14A9E0B0E00E94C114802D80936A02C0
:1021400080916A020E94BE027894ABE0B0E00E94E7
:10215000C114802D80934202AEE0B0E00E94C11411
:10216000802D80936F0261E080EA9FE00E94ED0184
:1021700061E087EC90E00E940F140E941B0161E077
:102180008CEB90E00E940F140E94310C002341F070
:102190008CE080936E0280E00E94E90910926E024A
:1021A00061E087EB90E00E940F14E9E04E2EE2E040
:1021B0005E2E7BE1672E72E0772E62E1862E62E072
:1021C000962E54E2A52E52E0B52E4DE2C42E42E0EA
:1021D000D42E30E0E32E32E0F32EC7EFD1E00DEE47
:1021E00011E0A89500B605FE03C00E94DB00F9CF00
:1021F0008091510280FF63C01092510280916E0263
:10220000853081F1863038F4833019F18430B0F4B0
:10221000882359F072C08730B9F1873060F1883077
:10222000E1F18D3009F069C041C084E080936E0215
:10223000C8010E94D2060E940A06D3CF83E0809391
:102240006E02CE010E94D2060E94760410924402D1
:10225000C8CF85E080936E02C7010E94D2060E941B
:102260008A0CBFCF86E080936E02C2010E94D20624
:102270000E948709B6CF87E080936E02C4010E9456
:10228000D2060E947F08ADCF88E080936E02C30122
:102290000E94D2060E941A08A4CF8DE080936E029D
:1022A000C5010E94D2060E9415099BCF8CE0809345
:1022B0006E02C6010E94D2060E94940B92CF8091BA
:1022C000510281FD04C08091510282FF8ACF109299
:1022D000510283E680936E0281E00E94F906A89580
:1022E000789410924F0210924E0280914E0290917B
:1022F0004F028C5D9540C8F3A89510926E0271CF85
:102300001F920F920FB60F921124EF920F932F93FB
:102310003F934F935F936F937F938F939F93AF936D
:10232000BF93EF93FF9380E8809361001092610068
:10233000809171028F5F80937102809171028C3362
:1023400038F010927102809167028F5F809367026C
:10235000809167028C3308F43DC01092670280912F
:1023600059028F5F8093590280916F02823081F40D
:10237000EE2402E023E040E06FE189E10E94A50342
:10238000EE24E3942AE040E06FE189E10E94A50396
:1023900080916F02813081F4EE2402E023E040E07E
:1023A0006EE088E00E94A503EE24E3942BE040E079
:1023B00067E081E00E94A50380915902A4E0B0E0AB
:1023C000082E0E94C91480916702A5E0B0E0082E93
:1023D0000E94C91480915902883170F010925902FC
:1023E00080915D028F5F80935D0280915D02A3E02A
:1023F000B0E0082E0E94C91480915D02803268F519
:1024000080915D028F3181F480917002843029F1D6
:1024100080917002863009F1809170028930E9F074
:10242000809170028B30C9F080915D028E3121F471
:1024300080917002823089F080915D028D31E1F4EB
:10244000809170028230C1F480915A0290E08053F2
:10245000984F0E947601882379F481E080935D0291
:10246000809170028F5F8093700280917002A2E071
:10247000B0E0082E0E94C914809170028D3078F06F
:1024800080915A028F5F80935A0281E0809370029C
:1024900080915A02A1E0B0E0082E0E94C9148091F8
:1024A0004302882309F073C080916E02882301F5EE
:1024B00080914402882349F08091710280FF05C019
:1024C00086E392E00E94D20608C0409171026091BA
:1024D0006702809159020E94FC038091680220915A
:1024E0005E02882311F0226001C02D7F20935E02DE
:1024F000809168028823E1F09091690280915902ED
:102500009817B1F490915B0280916702981781F45B
:1025100080917102882361F461E08EE391E00E9472
:102520000F1481E080936B0210924D0210924C02C6
:1025300080916A02882329F480917A0080648093D4
:102540007A0080915402882329F0809154028150AE
:102550008093540280915302882329F08091530282
:1025600081508093530280914C0290914D020097CC
:1025700071F0019790934D0280934C0220915E027E
:1025800080FF02C0226001C02D7F20935E02FF9178
:10259000EF91BF91AF919F918F917F916F915F91DB
:1025A0004F913F912F910F91EF900F900FBE0F9091
:1025B0001F90189506C090E000009F5F9E31E1F7E4
:1025C00081508823C1F70895482F09C020E137E2E0
:1025D00088EC90E00197F1F721503040C9F7415065
:1025E000A8F708959093C5008093C40088E1809374
:1025F000C1008EE08093C200519A50980895982FA0
:102600008091C00085FFFCCF9093C60080E090E0F1
:1026100008958091C00087FFFCCF8091C60090E0B4
:1026200008958091C00090E0807890700895282FE0
:10263000982F92959F709A3030F48091C00085FF5A
:10264000FCCF905D05C08091C00085FFFCCF995AFA
:102650009093C600822F90E08F7090702F700A9731
:1026600034F48091C00085FFFCCF205D05C08091CF
:10267000C00085FFFCCF295A2093C60008950F9310
:102680001F938C01812F99270E941713802F0E947E
:1026900017131F910F910895EF92FF920F931F93BD
:1026A0007B018C01C801AA27BB270E943F13C701E9
:1026B0000E943F131F910F91FF90EF9008954F924A
:1026C0005F926F927F928F929F92AF92BF92CF92C2
:1026D000DF92EF92FF920F931F93CF93DF937B01D3
:1026E0008C01A12C2AECB22E2AE9C22E2BE3D22E89
:1026F0004424C0E0D0E0C801B701A60195010E94C2
:102700008414522E222341F4442031F481E0A8168F
:10271000B104C104D10461F48091C00085FFFCCFF5
:1027200080E3580E5092C60080ED580E4424439426
:10273000C601B5012AE030E040E050E00E94841478
:1027400039014A012196CA30D10579F0652D70E032
:1027500080E090E0A60195010E943214E61AF70A83
:10276000080B190B64015301C6CFDF91CF911F9164
:102770000F91FF90EF90DF90CF90BF90AF909F9020
:102780008F907F906F905F904F9008950F931F935D
:10279000CF93DF93FC01C0E1D7E230E000E010E02E
:1027A000CF01BE010E945D14262F662329F4332336
:1027B00019F4C130D10549F48091C00085FFFCCFE8
:1027C000205D2093C600205331E0CE016AE070E026
:1027D0000E945D140F5F1F4F0530110571F0822FAD
:1027E00090E0AC014C9FC0014D9F900D5C9F900DFF
:1027F0001124E81BF90BEB01D3CFDF91CF911F918F
:102800000F910895FC0107C08091C00085FFFCCFA7
:1028100031969093C60090819923B1F70895DC0119
:1028200020E030E008C08091C00085FFFCCF4093DD
:10283000C6002F5F3F4FFD01E20FF11D449144237D
:1028400091F7662371F08091C00085FFFCCF8AE08C
:102850008093C6008091C00085FFFCCF8DE08093FF
:10286000C6000895629FD001739FF001829FE00D22
:10287000F11D649FE00DF11D929FF00D839FF00DFF
:10288000749FF00D659FF00D9927729FB00DE11DAB
:10289000F91F639FB00DE11DF91FBD01CF01112488
:1028A0000895991B79E004C0991F961708F0961BAC
:1028B000881F7A95C9F780950895AA1BBB1B51E123
:1028C00007C0AA1FBB1FA617B70710F0A61BB70BA0
:1028D000881F991F5A95A9F780959095BC01CD0145
:1028E000089597FB092E07260AD077FD04D0E5DF6F
:1028F00006D000201AF4709561957F4F0895F6F781
:10290000909581959F4F0895A1E21A2EAA1BBB1B9B
:10291000FD010DC0AA1FBB1FEE1FFF1FA217B307AB
:10292000E407F50720F0A21BB30BE40BF50B661FC1
:10293000771F881F991F1A9469F760957095809585
:1029400090959B01AC01BD01CF01089597FB092E25
:1029500005260ED057FD04D0D7DF0AD0001C38F46E
:1029600050954095309521953F4F4F4F5F4F0895BB
:10297000F6F790958095709561957F4F8F4F9F4F9B
:102980000895F999FECFB2BDA1BDF89A119600B491
:102990000895F999FECFB2BDA1BD00BC11960FB646
:0C29A000F894FA9AF99A0FBE0895FFCF40
:1029AC0073756E646179006D6F6E64617900747516
:1029BC006573646179007765646E73646179007422
:1029CC006875727364617900667269646179007309
:1029DC0061747572646179006A616E00666562008B
:1029EC006D6172636800617072696C006D61790071
:1029FC006A756E65006A756C790061756773740031
:102A0C0073657074006F63746F62006E6F76656DC2
:102A1C0000646563656D007573612D3132687200F9
:102A2C006575722D3234687200766F6C2068696738
:102A3C006800766F6C20206C6F770064737420755F
:102A4C007320200064737420646520200064737408
:102A5C00206F666620006272697465200065202014
:102A6C00202020202020006578006578690065789A
:102A7C0069740065786974696E6700616C61726D68
:102A8C00206F6E00736E6F6F7A696E67007365747A
:102A9C0020616C61726D007365742074696D6500E2
:102AAC007365742064617465007365742062726967
:102ABC00740073657420766F6C20007365742072DB
:102ACC0065676E007365742064737420007465739D
:102ADC00746D6F64650020202020202020200000D1
:00000001FF
